{
  "contractName": "BCFL",
  "abi": [
    {
      "inputs": [],
      "stateMutability": "nonpayable",
      "type": "constructor"
    },
    {
      "anonymous": false,
      "inputs": [
        {
          "indexed": false,
          "internalType": "uint256",
          "name": "round",
          "type": "uint256"
        },
        {
          "indexed": false,
          "internalType": "string",
          "name": "cid",
          "type": "string"
        }
      ],
      "name": "GlobalModelUpdated",
      "type": "event"
    },
    {
      "anonymous": false,
      "inputs": [
        {
          "indexed": false,
          "internalType": "address",
          "name": "trainer",
          "type": "address"
        },
        {
          "indexed": false,
          "internalType": "uint256",
          "name": "round",
          "type": "uint256"
        },
        {
          "indexed": false,
          "internalType": "uint256",
          "name": "score",
          "type": "uint256"
        }
      ],
      "name": "ScoreSubmitted",
      "type": "event"
    },
    {
      "anonymous": false,
      "inputs": [
        {
          "indexed": false,
          "internalType": "string",
          "name": "genesisModelCID",
          "type": "string"
        },
        {
          "indexed": false,
          "internalType": "uint256",
          "name": "totalRounds",
          "type": "uint256"
        }
      ],
      "name": "TaskInitialized",
      "type": "event"
    },
    {
      "anonymous": false,
      "inputs": [
        {
          "indexed": false,
          "internalType": "address",
          "name": "trainer",
          "type": "address"
        },
        {
          "indexed": false,
          "internalType": "uint256",
          "name": "amount",
          "type": "uint256"
        }
      ],
      "name": "TokensDistributed",
      "type": "event"
    },
    {
      "anonymous": false,
      "inputs": [
        {
          "indexed": false,
          "internalType": "address",
          "name": "trainer",
          "type": "address"
        },
        {
          "indexed": false,
          "internalType": "uint256",
          "name": "round",
          "type": "uint256"
        },
        {
          "indexed": false,
          "internalType": "string",
          "name": "cid",
          "type": "string"
        }
      ],
      "name": "UpdateSubmitted",
      "type": "event"
    },
    {
      "inputs": [],
      "name": "currentRound",
      "outputs": [
        {
          "internalType": "uint256",
          "name": "",
          "type": "uint256"
        }
      ],
      "stateMutability": "view",
      "type": "function",
      "constant": true
    },
    {
      "inputs": [],
      "name": "evaluator",
      "outputs": [
        {
          "internalType": "address",
          "name": "",
          "type": "address"
        }
      ],
      "stateMutability": "view",
      "type": "function",
      "constant": true
    },
    {
      "inputs": [],
      "name": "owner",
      "outputs": [
        {
          "internalType": "address",
          "name": "",
          "type": "address"
        }
      ],
      "stateMutability": "view",
      "type": "function",
      "constant": true
    },
    {
      "inputs": [
        {
          "internalType": "address",
          "name": "",
          "type": "address"
        }
      ],
      "name": "reputation",
      "outputs": [
        {
          "internalType": "uint256",
          "name": "",
          "type": "uint256"
        }
      ],
      "stateMutability": "view",
      "type": "function",
      "constant": true
    },
    {
      "inputs": [
        {
          "internalType": "address",
          "name": "",
          "type": "address"
        }
      ],
      "name": "rewards",
      "outputs": [
        {
          "internalType": "uint256",
          "name": "",
          "type": "uint256"
        }
      ],
      "stateMutability": "view",
      "type": "function",
      "constant": true
    },
    {
      "inputs": [
        {
          "internalType": "uint256",
          "name": "",
          "type": "uint256"
        }
      ],
      "name": "rounds",
      "outputs": [
        {
          "internalType": "string",
          "name": "globalModelCID",
          "type": "string"
        }
      ],
      "stateMutability": "view",
      "type": "function",
      "constant": true
    },
    {
      "inputs": [],
      "name": "task",
      "outputs": [
        {
          "internalType": "address",
          "name": "creator",
          "type": "address"
        },
        {
          "internalType": "string",
          "name": "genesisModelCID",
          "type": "string"
        },
        {
          "internalType": "uint256",
          "name": "totalRounds",
          "type": "uint256"
        },
        {
          "internalType": "uint256",
          "name": "trainerCount",
          "type": "uint256"
        },
        {
          "internalType": "bool",
          "name": "initialized",
          "type": "bool"
        }
      ],
      "stateMutability": "view",
      "type": "function",
      "constant": true
    },
    {
      "inputs": [
        {
          "internalType": "string",
          "name": "_genesisModelCID",
          "type": "string"
        },
        {
          "internalType": "uint256",
          "name": "_totalRounds",
          "type": "uint256"
        },
        {
          "internalType": "uint256",
          "name": "_trainerCount",
          "type": "uint256"
        }
      ],
      "name": "initialize",
      "outputs": [],
      "stateMutability": "nonpayable",
      "type": "function"
    },
    {
      "inputs": [
        {
          "internalType": "uint256",
          "name": "round",
          "type": "uint256"
        },
        {
          "internalType": "string",
          "name": "cid",
          "type": "string"
        }
      ],
      "name": "submitUpdate",
      "outputs": [],
      "stateMutability": "nonpayable",
      "type": "function"
    },
    {
      "inputs": [
        {
          "internalType": "uint256",
          "name": "round",
          "type": "uint256"
        },
        {
          "internalType": "address",
          "name": "trainer",
          "type": "address"
        },
        {
          "internalType": "uint256",
          "name": "score",
          "type": "uint256"
        }
      ],
      "name": "submitScore",
      "outputs": [],
      "stateMutability": "nonpayable",
      "type": "function"
    },
    {
      "inputs": [
        {
          "internalType": "uint256",
          "name": "round",
          "type": "uint256"
        },
        {
          "internalType": "address[]",
          "name": "trainers",
          "type": "address[]"
        }
      ],
      "name": "selectTrainersForRound",
      "outputs": [],
      "stateMutability": "nonpayable",
      "type": "function"
    },
    {
      "inputs": [
        {
          "internalType": "uint256",
          "name": "round",
          "type": "uint256"
        }
      ],
      "name": "getSelectedTrainers",
      "outputs": [
        {
          "internalType": "address[]",
          "name": "",
          "type": "address[]"
        }
      ],
      "stateMutability": "view",
      "type": "function",
      "constant": true
    },
    {
      "inputs": [],
      "name": "getCurrentRound",
      "outputs": [
        {
          "internalType": "uint256",
          "name": "",
          "type": "uint256"
        }
      ],
      "stateMutability": "view",
      "type": "function",
      "constant": true
    },
    {
      "inputs": [
        {
          "internalType": "uint256",
          "name": "round",
          "type": "uint256"
        }
      ],
      "name": "getGlobalModelCID",
      "outputs": [
        {
          "internalType": "string",
          "name": "",
          "type": "string"
        }
      ],
      "stateMutability": "view",
      "type": "function",
      "constant": true
    },
    {
      "inputs": [
        {
          "internalType": "uint256",
          "name": "round",
          "type": "uint256"
        },
        {
          "internalType": "string",
          "name": "cid",
          "type": "string"
        }
      ],
      "name": "submitGlobalModel",
      "outputs": [],
      "stateMutability": "nonpayable",
      "type": "function"
    },
    {
      "inputs": [
        {
          "internalType": "uint256",
          "name": "round",
          "type": "uint256"
        },
        {
          "internalType": "uint256",
          "name": "totalReward",
          "type": "uint256"
        }
      ],
      "name": "distributeTokens",
      "outputs": [],
      "stateMutability": "nonpayable",
      "type": "function"
    },
    {
      "inputs": [
        {
          "internalType": "address",
          "name": "_evaluator",
          "type": "address"
        }
      ],
      "name": "setEvaluator",
      "outputs": [],
      "stateMutability": "nonpayable",
      "type": "function"
    },
    {
      "inputs": [
        {
          "internalType": "address",
          "name": "trainer",
          "type": "address"
        }
      ],
      "name": "getReward",
      "outputs": [
        {
          "internalType": "uint256",
          "name": "",
          "type": "uint256"
        }
      ],
      "stateMutability": "view",
      "type": "function",
      "constant": true
    },
    {
      "inputs": [
        {
          "internalType": "address",
          "name": "trainer",
          "type": "address"
        }
      ],
      "name": "getReputation",
      "outputs": [
        {
          "internalType": "uint256",
          "name": "",
          "type": "uint256"
        }
      ],
      "stateMutability": "view",
      "type": "function",
      "constant": true
    },
    {
      "inputs": [
        {
          "internalType": "uint256",
          "name": "round",
          "type": "uint256"
        },
        {
          "internalType": "address",
          "name": "trainer",
          "type": "address"
        }
      ],
      "name": "getUpdateCID",
      "outputs": [
        {
          "internalType": "string",
          "name": "",
          "type": "string"
        }
      ],
      "stateMutability": "view",
      "type": "function",
      "constant": true
    }
  ],
  "bytecode": "0x608060405234801561001057600080fd5b5033600960006101000a81548173ffffffffffffffffffffffffffffffffffffffff021916908373ffffffffffffffffffffffffffffffffffffffff16021790555033600a60006101000a81548173ffffffffffffffffffffffffffffffffffffffff021916908373ffffffffffffffffffffffffffffffffffffffff1602179055506000600581905550612292806100aa6000396000f3fe608060405234801561001057600080fd5b506004361061012c5760003560e01c80639cb93dd1116100ad578063c0484dae11610071578063c0484dae14610347578063c6e5546c14610377578063e1d1e89614610393578063e59a8525146103c3578063ea67bed8146103f35761012c565b80639cb93dd11461028f5780639dea60a8146102ad578063a32bf597146102c9578063b9f79451146102e7578063c00007b0146103175761012c565b80638a19c8bc116100f45780638a19c8bc146101d75780638c65c81f146101f55780638da5cb5b14610225578063977d08c0146102435780639c89a0e21461025f5761012c565b806302dbbbac146101315780630700037d1461014d57806329d8e8571461017d5780633283f6411461019957806387d8b355146101bb575b600080fd5b61014b60048036038101906101469190611774565b61040f565b005b61016760048036038101906101629190611774565b6104e3565b6040516101749190611e4e565b60405180910390f35b61019760048036038101906101929190611869565b6104fb565b005b6101a16106ab565b6040516101b2959493929190611c22565b60405180910390f35b6101d560048036038101906101d091906118b8565b610784565b005b6101df610955565b6040516101ec9190611e4e565b60405180910390f35b61020f600480360381019061020a9190611804565b61095b565b60405161021c9190611d3c565b60405180910390f35b61022d610a01565b60405161023a9190611c07565b60405180910390f35b61025d6004803603810190610258919061179d565b610a27565b005b61027960048036038101906102749190611774565b610c4f565b6040516102869190611e4e565b60405180910390f35b610297610c98565b6040516102a49190611c07565b60405180910390f35b6102c760048036038101906102c2919061190c565b610cbe565b005b6102d1610e12565b6040516102de9190611e4e565b60405180910390f35b61030160048036038101906102fc9190611774565b610e1c565b60405161030e9190611e4e565b60405180910390f35b610331600480360381019061032c9190611774565b610e34565b60405161033e9190611e4e565b60405180910390f35b610361600480360381019061035c9190611804565b610e7d565b60405161036e9190611d1a565b60405180910390f35b610391600480360381019061038c9190611960565b610f21565b005b6103ad60048036038101906103a8919061182d565b61130f565b6040516103ba9190611d3c565b60405180910390f35b6103dd60048036038101906103d89190611804565b6113f5565b6040516103ea9190611d3c565b60405180910390f35b61040d6004803603810190610408919061190c565b61149d565b005b600960009054906101000a900473ffffffffffffffffffffffffffffffffffffffff1673ffffffffffffffffffffffffffffffffffffffff163373ffffffffffffffffffffffffffffffffffffffff161461049f576040517f08c379a000000000000000000000000000000000000000000000000000000000815260040161049690611e2e565b60405180910390fd5b80600a60006101000a81548173ffffffffffffffffffffffffffffffffffffffff021916908373ffffffffffffffffffffffffffffffffffffffff16021790555050565b60076020528060005260406000206000915090505481565b600a60009054906101000a900473ffffffffffffffffffffffffffffffffffffffff1673ffffffffffffffffffffffffffffffffffffffff163373ffffffffffffffffffffffffffffffffffffffff161461058b576040517f08c379a000000000000000000000000000000000000000000000000000000000815260040161058290611dee565b60405180910390fd5b60055483146105cf576040517f08c379a00000000000000000000000000000000000000000000000000000000081526004016105c690611dce565b60405180910390fd5b806006600085815260200190815260200160002060020160008473ffffffffffffffffffffffffffffffffffffffff1673ffffffffffffffffffffffffffffffffffffffff1681526020019081526020016000208190555080600860008473ffffffffffffffffffffffffffffffffffffffff1673ffffffffffffffffffffffffffffffffffffffff168152602001908152602001600020819055507fb7f20d0949b6a8bc59d005af4a52f7ff5d0cfcde9056fa556adb0e4b24dcb6d282848360405161069e93929190611ce3565b60405180910390a1505050565b60008060000160009054906101000a900473ffffffffffffffffffffffffffffffffffffffff16908060010180546106e2906120e6565b80601f016020809104026020016040519081016040528092919081815260200182805461070e906120e6565b801561075b5780601f106107305761010080835404028352916020019161075b565b820191906000526020600020905b81548152906001019060200180831161073e57829003601f168201915b5050505050908060020154908060030154908060040160009054906101000a900460ff16905085565b600960009054906101000a900473ffffffffffffffffffffffffffffffffffffffff1673ffffffffffffffffffffffffffffffffffffffff163373ffffffffffffffffffffffffffffffffffffffff1614610814576040517f08c379a000000000000000000000000000000000000000000000000000000000815260040161080b90611e2e565b60405180910390fd5b6005548214610858576040517f08c379a000000000000000000000000000000000000000000000000000000000815260040161084f90611dce565b60405180910390fd5b60066000838152602001908152602001600020600301600061087a9190611588565b60005b815181101561095057600660008481526020019081526020016000206003018282815181106108d5577f4e487b7100000000000000000000000000000000000000000000000000000000600052603260045260246000fd5b60200260200101519080600181540180825580915050600190039060005260206000200160009091909190916101000a81548173ffffffffffffffffffffffffffffffffffffffff021916908373ffffffffffffffffffffffffffffffffffffffff160217905550808061094890612118565b91505061087d565b505050565b60055481565b600660205280600052604060002060009150905080600001805461097e906120e6565b80601f01602080910402602001604051908101604052809291908181526020018280546109aa906120e6565b80156109f75780601f106109cc576101008083540402835291602001916109f7565b820191906000526020600020905b8154815290600101906020018083116109da57829003601f168201915b5050505050905081565b600960009054906101000a900473ffffffffffffffffffffffffffffffffffffffff1681565b600960009054906101000a900473ffffffffffffffffffffffffffffffffffffffff1673ffffffffffffffffffffffffffffffffffffffff163373ffffffffffffffffffffffffffffffffffffffff1614610ab7576040517f08c379a0000000000000000000000000000000000000000000000000000000008152600401610aae90611e2e565b60405180910390fd5b600060040160009054906101000a900460ff1615610b0a576040517f08c379a0000000000000000000000000000000000000000000000000000000008152600401610b0190611dae565b60405180910390fd5b6040518060a001604052803373ffffffffffffffffffffffffffffffffffffffff168152602001848152602001838152602001828152602001600115158152506000808201518160000160006101000a81548173ffffffffffffffffffffffffffffffffffffffff021916908373ffffffffffffffffffffffffffffffffffffffff1602179055506020820151816001019080519060200190610bae9291906115a9565b50604082015181600201556060820151816003015560808201518160040160006101000a81548160ff02191690831515021790555090505082600660008081526020019081526020016000206000019080519060200190610c109291906115a9565b507f11afc9cd9cd50adb591e20b8bdfb46771413bf95c6324f278499061bdefa62f68383604051610c42929190611d5e565b60405180910390a1505050565b6000600860008373ffffffffffffffffffffffffffffffffffffffff1673ffffffffffffffffffffffffffffffffffffffff168152602001908152602001600020549050919050565b600a60009054906101000a900473ffffffffffffffffffffffffffffffffffffffff1681565b600960009054906101000a900473ffffffffffffffffffffffffffffffffffffffff1673ffffffffffffffffffffffffffffffffffffffff163373ffffffffffffffffffffffffffffffffffffffff1614610d4e576040517f08c379a0000000000000000000000000000000000000000000000000000000008152600401610d4590611e2e565b60405180910390fd5b6005548214610d92576040517f08c379a0000000000000000000000000000000000000000000000000000000008152600401610d8990611dce565b60405180910390fd5b80600660008481526020019081526020016000206000019080519060200190610dbc9291906115a9565b5060056000815480929190610dd090612118565b91905055507ff5349192467e1a2d228acda106f6456f317341386e8bc9ff3aa03a8693052d4b8282604051610e06929190611e69565b60405180910390a15050565b6000600554905090565b60086020528060005260406000206000915090505481565b6000600760008373ffffffffffffffffffffffffffffffffffffffff1673ffffffffffffffffffffffffffffffffffffffff168152602001908152602001600020549050919050565b606060066000838152602001908152602001600020600301805480602002602001604051908101604052809291908181526020018280548015610f1557602002820191906000526020600020905b8160009054906101000a900473ffffffffffffffffffffffffffffffffffffffff1673ffffffffffffffffffffffffffffffffffffffff1681526020019060010190808311610ecb575b50505050509050919050565b600960009054906101000a900473ffffffffffffffffffffffffffffffffffffffff1673ffffffffffffffffffffffffffffffffffffffff163373ffffffffffffffffffffffffffffffffffffffff1614610fb1576040517f08c379a0000000000000000000000000000000000000000000000000000000008152600401610fa890611e2e565b60405180910390fd5b6005548210610ff5576040517f08c379a0000000000000000000000000000000000000000000000000000000008152600401610fec90611d8e565b60405180910390fd5b6000805b600660008581526020019081526020016000206003018054905081101561110c57600060066000868152602001908152602001600020600301828154811061106a577f4e487b7100000000000000000000000000000000000000000000000000000000600052603260045260246000fd5b9060005260206000200160009054906101000a900473ffffffffffffffffffffffffffffffffffffffff1690506006600086815260200190815260200160002060020160008273ffffffffffffffffffffffffffffffffffffffff1673ffffffffffffffffffffffffffffffffffffffff16815260200190815260200160002054836110f69190611f7b565b925050808061110490612118565b915050610ff9565b5060008111611150576040517f08c379a000000000000000000000000000000000000000000000000000000000815260040161114790611e0e565b60405180910390fd5b60005b60066000858152602001908152602001600020600301805490508110156113095760006006600086815260200190815260200160002060030182815481106111c4577f4e487b7100000000000000000000000000000000000000000000000000000000600052603260045260246000fd5b9060005260206000200160009054906101000a900473ffffffffffffffffffffffffffffffffffffffff16905060006006600087815260200190815260200160002060020160008373ffffffffffffffffffffffffffffffffffffffff1673ffffffffffffffffffffffffffffffffffffffff16815260200190815260200160002054905060008486836112589190612002565b6112629190611fd1565b905080600760008573ffffffffffffffffffffffffffffffffffffffff1673ffffffffffffffffffffffffffffffffffffffff16815260200190815260200160002060008282546112b39190611f7b565b925050819055507f16b0da2ffcb90c6723317bd637d9aad7f04711f42bbe0ac0918ebe10f1f9001c83826040516112eb929190611c7c565b60405180910390a1505050808061130190612118565b915050611153565b50505050565b60606006600084815260200190815260200160002060010160008373ffffffffffffffffffffffffffffffffffffffff1673ffffffffffffffffffffffffffffffffffffffff168152602001908152602001600020805461136f906120e6565b80601f016020809104026020016040519081016040528092919081815260200182805461139b906120e6565b80156113e85780601f106113bd576101008083540402835291602001916113e8565b820191906000526020600020905b8154815290600101906020018083116113cb57829003601f168201915b5050505050905092915050565b6060600660008381526020019081526020016000206000018054611418906120e6565b80601f0160208091040260200160405190810160405280929190818152602001828054611444906120e6565b80156114915780601f1061146657610100808354040283529160200191611491565b820191906000526020600020905b81548152906001019060200180831161147457829003601f168201915b50505050509050919050565b60055482146114e1576040517f08c379a00000000000000000000000000000000000000000000000000000000081526004016114d890611dce565b60405180910390fd5b806006600084815260200190815260200160002060010160003373ffffffffffffffffffffffffffffffffffffffff1673ffffffffffffffffffffffffffffffffffffffff16815260200190815260200160002090805190602001906115489291906115a9565b507f98a33c001c2982f7e41f57e54a77b5908220d0b064f469c840a420ee65a2c0f533838360405161157c93929190611ca5565b60405180910390a15050565b50805460008255906000526020600020908101906115a6919061162f565b50565b8280546115b5906120e6565b90600052602060002090601f0160209004810192826115d7576000855561161e565b82601f106115f057805160ff191683800117855561161e565b8280016001018555821561161e579182015b8281111561161d578251825591602001919060010190611602565b5b50905061162b919061162f565b5090565b5b80821115611648576000816000905550600101611630565b5090565b600061165f61165a84611eca565b611e99565b9050808382526020820190508285602086028201111561167e57600080fd5b60005b858110156116ae578161169488826116f6565b845260208401935060208301925050600181019050611681565b5050509392505050565b60006116cb6116c684611ef6565b611e99565b9050828152602081018484840111156116e357600080fd5b6116ee8482856120a4565b509392505050565b6000813590506117058161222e565b92915050565b600082601f83011261171c57600080fd5b813561172c84826020860161164c565b91505092915050565b600082601f83011261174657600080fd5b81356117568482602086016116b8565b91505092915050565b60008135905061176e81612245565b92915050565b60006020828403121561178657600080fd5b6000611794848285016116f6565b91505092915050565b6000806000606084860312156117b257600080fd5b600084013567ffffffffffffffff8111156117cc57600080fd5b6117d886828701611735565b93505060206117e98682870161175f565b92505060406117fa8682870161175f565b9150509250925092565b60006020828403121561181657600080fd5b60006118248482850161175f565b91505092915050565b6000806040838503121561184057600080fd5b600061184e8582860161175f565b925050602061185f858286016116f6565b9150509250929050565b60008060006060848603121561187e57600080fd5b600061188c8682870161175f565b935050602061189d868287016116f6565b92505060406118ae8682870161175f565b9150509250925092565b600080604083850312156118cb57600080fd5b60006118d98582860161175f565b925050602083013567ffffffffffffffff8111156118f657600080fd5b6119028582860161170b565b9150509250929050565b6000806040838503121561191f57600080fd5b600061192d8582860161175f565b925050602083013567ffffffffffffffff81111561194a57600080fd5b61195685828601611735565b9150509250929050565b6000806040838503121561197357600080fd5b60006119818582860161175f565b92505060206119928582860161175f565b9150509250929050565b60006119a883836119b4565b60208301905092915050565b6119bd8161205c565b82525050565b6119cc8161205c565b82525050565b60006119dd82611f36565b6119e78185611f59565b93506119f283611f26565b8060005b83811015611a23578151611a0a888261199c565b9750611a1583611f4c565b9250506001810190506119f6565b5085935050505092915050565b611a398161206e565b82525050565b6000611a4a82611f41565b611a548185611f6a565b9350611a648185602086016120b3565b611a6d8161221d565b840191505092915050565b6000611a85601383611f6a565b91507f526f756e64206e6f7420636f6d706c65746564000000000000000000000000006000830152602082019050919050565b6000611ac5601883611f6a565b91507f5461736b20616c726561647920696e697469616c697a656400000000000000006000830152602082019050919050565b6000611b05600d83611f6a565b91507f496e76616c696420726f756e64000000000000000000000000000000000000006000830152602082019050919050565b6000611b45601c83611f6a565b91507f4f6e6c79206576616c7561746f722063616e2063616c6c2074686973000000006000830152602082019050919050565b6000611b85601383611f6a565b91507f4e6f2073636f72657320617661696c61626c65000000000000000000000000006000830152602082019050919050565b6000611bc5601883611f6a565b91507f4f6e6c79206f776e65722063616e2063616c6c207468697300000000000000006000830152602082019050919050565b611c018161209a565b82525050565b6000602082019050611c1c60008301846119c3565b92915050565b600060a082019050611c3760008301886119c3565b8181036020830152611c498187611a3f565b9050611c586040830186611bf8565b611c656060830185611bf8565b611c726080830184611a30565b9695505050505050565b6000604082019050611c9160008301856119c3565b611c9e6020830184611bf8565b9392505050565b6000606082019050611cba60008301866119c3565b611cc76020830185611bf8565b8181036040830152611cd98184611a3f565b9050949350505050565b6000606082019050611cf860008301866119c3565b611d056020830185611bf8565b611d126040830184611bf8565b949350505050565b60006020820190508181036000830152611d3481846119d2565b905092915050565b60006020820190508181036000830152611d568184611a3f565b905092915050565b60006040820190508181036000830152611d788185611a3f565b9050611d876020830184611bf8565b9392505050565b60006020820190508181036000830152611da781611a78565b9050919050565b60006020820190508181036000830152611dc781611ab8565b9050919050565b60006020820190508181036000830152611de781611af8565b9050919050565b60006020820190508181036000830152611e0781611b38565b9050919050565b60006020820190508181036000830152611e2781611b78565b9050919050565b60006020820190508181036000830152611e4781611bb8565b9050919050565b6000602082019050611e636000830184611bf8565b92915050565b6000604082019050611e7e6000830185611bf8565b8181036020830152611e908184611a3f565b90509392505050565b6000604051905081810181811067ffffffffffffffff82111715611ec057611ebf6121ee565b5b8060405250919050565b600067ffffffffffffffff821115611ee557611ee46121ee565b5b602082029050602081019050919050565b600067ffffffffffffffff821115611f1157611f106121ee565b5b601f19601f8301169050602081019050919050565b6000819050602082019050919050565b600081519050919050565b600081519050919050565b6000602082019050919050565b600082825260208201905092915050565b600082825260208201905092915050565b6000611f868261209a565b9150611f918361209a565b9250827fffffffffffffffffffffffffffffffffffffffffffffffffffffffffffffffff03821115611fc657611fc5612161565b5b828201905092915050565b6000611fdc8261209a565b9150611fe78361209a565b925082611ff757611ff6612190565b5b828204905092915050565b600061200d8261209a565b91506120188361209a565b9250817fffffffffffffffffffffffffffffffffffffffffffffffffffffffffffffffff048311821515161561205157612050612161565b5b828202905092915050565b60006120678261207a565b9050919050565b60008115159050919050565b600073ffffffffffffffffffffffffffffffffffffffff82169050919050565b6000819050919050565b82818337600083830152505050565b60005b838110156120d15780820151818401526020810190506120b6565b838111156120e0576000848401525b50505050565b600060028204905060018216806120fe57607f821691505b60208210811415612112576121116121bf565b5b50919050565b60006121238261209a565b91507fffffffffffffffffffffffffffffffffffffffffffffffffffffffffffffffff82141561215657612155612161565b5b600182019050919050565b7f4e487b7100000000000000000000000000000000000000000000000000000000600052601160045260246000fd5b7f4e487b7100000000000000000000000000000000000000000000000000000000600052601260045260246000fd5b7f4e487b7100000000000000000000000000000000000000000000000000000000600052602260045260246000fd5b7f4e487b7100000000000000000000000000000000000000000000000000000000600052604160045260246000fd5b6000601f19601f8301169050919050565b6122378161205c565b811461224257600080fd5b50565b61224e8161209a565b811461225957600080fd5b5056fea2646970667358221220316706e13a1b036153f2c0339f36f10962f39484e2b83a795c28527cd2f5ca9264736f6c63430008000033",
  "immutableReferences": {},
  "source": "// SPDX-License-Identifier: MIT\npragma solidity ^0.8.0;\n\ncontract BCFL {\n    struct Task {\n        address creator;\n        string genesisModelCID;\n        uint totalRounds;\n        uint trainerCount;\n        bool initialized;\n    }\n\n    struct RoundData {\n        string globalModelCID;\n        mapping(address => string) updates;\n        mapping(address => uint) scores;\n        address[] selectedTrainers;\n    }\n\n    Task public task;\n    uint public currentRound;\n    mapping(uint => RoundData) public rounds;\n    mapping(address => uint) public rewards;\n    mapping(address => uint) public reputation;\n    address public owner;\n    address public evaluator;\n\n    event TaskInitialized(string genesisModelCID, uint totalRounds);\n    event UpdateSubmitted(address trainer, uint round, string cid);\n    event ScoreSubmitted(address trainer, uint round, uint score);\n    event GlobalModelUpdated(uint round, string cid);\n    event TokensDistributed(address trainer, uint amount);\n\n    modifier onlyOwner() {\n        require(msg.sender == owner, \"Only owner can call this\");\n        _;\n    }\n\n    modifier onlyEvaluator() {\n        require(msg.sender == evaluator, \"Only evaluator can call this\");\n        _;\n    }\n\n    constructor() {\n        owner = msg.sender;\n        evaluator = msg.sender;\n        currentRound = 0;\n    }\n\n    function initialize(string memory _genesisModelCID, uint _totalRounds, uint _trainerCount) external onlyOwner {\n        require(!task.initialized, \"Task already initialized\");\n        task = Task({\n            creator: msg.sender,\n            genesisModelCID: _genesisModelCID,\n            totalRounds: _totalRounds,\n            trainerCount: _trainerCount,\n            initialized: true\n        });\n        rounds[0].globalModelCID = _genesisModelCID;\n        emit TaskInitialized(_genesisModelCID, _totalRounds);\n    }\n\n    function submitUpdate(uint round, string memory cid) external {\n        require(round == currentRound, \"Invalid round\");\n        rounds[round].updates[msg.sender] = cid;\n        emit UpdateSubmitted(msg.sender, round, cid);\n    }\n\n    function submitScore(uint round, address trainer, uint score) external onlyEvaluator {\n        require(round == currentRound, \"Invalid round\");\n        rounds[round].scores[trainer] = score;\n        reputation[trainer] = score;\n        emit ScoreSubmitted(trainer, round, score);\n    }\n\n    function selectTrainersForRound(uint round, address[] memory trainers) external onlyOwner {\n        require(round == currentRound, \"Invalid round\");\n        delete rounds[round].selectedTrainers;\n        for (uint i = 0; i < trainers.length; i++) {\n            rounds[round].selectedTrainers.push(trainers[i]);\n        }\n    }\n\n    function getSelectedTrainers(uint round) external view returns (address[] memory) {\n        return rounds[round].selectedTrainers;\n    }\n\n    function getCurrentRound() external view returns (uint) {\n        return currentRound;\n    }\n\n    function getGlobalModelCID(uint round) external view returns (string memory) {\n        return rounds[round].globalModelCID;\n    }\n\n    function submitGlobalModel(uint round, string memory cid) external onlyOwner {\n        require(round == currentRound, \"Invalid round\");\n        rounds[round].globalModelCID = cid;\n        currentRound++;\n        emit GlobalModelUpdated(round, cid);\n    }\n\n    function distributeTokens(uint round, uint totalReward) external onlyOwner {\n        require(round < currentRound, \"Round not completed\");\n        uint totalScore = 0;\n        for (uint i = 0; i < rounds[round].selectedTrainers.length; i++) {\n            address trainer = rounds[round].selectedTrainers[i];\n            totalScore += rounds[round].scores[trainer];\n        }\n        require(totalScore > 0, \"No scores available\");\n\n        for (uint i = 0; i < rounds[round].selectedTrainers.length; i++) {\n            address trainer = rounds[round].selectedTrainers[i];\n            uint score = rounds[round].scores[trainer];\n            uint reward = (score * totalReward) / totalScore;\n            rewards[trainer] += reward;\n            emit TokensDistributed(trainer, reward);\n        }\n    }\n\n    function setEvaluator(address _evaluator) external onlyOwner {\n        evaluator = _evaluator;\n    }\n\n    function getReward(address trainer) external view returns (uint) {\n        return rewards[trainer];\n    }\n\n    function getReputation(address trainer) external view returns (uint) {\n        return reputation[trainer];\n    }\n\n    function getUpdateCID(uint round, address trainer) external view returns (string memory) {\n        return rounds[round].updates[trainer];\n    }\n}",
  "sourcePath": "/root/shared-nvme/mgr/decentralized_fl/contracts/BCFL.sol",
  "compiler": {
    "name": "solc",
    "version": "0.8.0+commit.c7dfd78e.Emscripten.clang"
  },
  "schemaVersion": "3.4.16",
  "updatedAt": "2025-04-01T09:52:54.468Z",
  "networkType": "ethereum",
  "devdoc": {
    "kind": "dev",
    "methods": {},
    "version": 1
  },
  "userdoc": {
    "kind": "user",
    "methods": {},
    "version": 1
  }
}